:020000020000FC
:0200000012C02C
:1000240011C02FEF24B925B908E90093C1000FECE2
:1000340010E00093C4001093C50030E03093C0007A
:100044007894FFCF01D018954091C600403301F158
:10005400413309F1423311F1433319F1443321F1AE
:10006400453329F1463331F1473339F1483341F10E
:10007400493349F1413451F1423459F1433461F186
:10008400443469F1453471F1463479F131D018952D
:1000940020E425B9189529E725B9189524E225B94E
:1000A400189520E325B9189529E125B9189522E179
:1000B40025B9189522E025B9189528E725B918958A
:1000C40020E025B9189528E125B9189528E025B927
:1000D400189523E025B9189526E425B9189521E249
:1000E40025B9189526E025B918952EE025B9189557
:0600F4002FE325B9189569
:00000001FF
